:020000040000FA
:100000000C9461010C9489010C9489010C94890170
:100010000C9489010C9489010C9489010C94890138
:100020000C9489010C9489010C9489010C94890128
:100030000C9489010C9489010C9489010C94890118
:100040000C9409200C9489010C94D71F0C94B11FB7
:100050000C9489010C9489010C9489010C948901F8
:100060000C9489010C94890100407A10F35A00A085
:10007000724E18090010A5D4E80000E87648170071
:1000800000E40B54020000CA9A3B000000E1F505B1
:10009000000080969800000040420F000000A086FB
:1000A00001000000102700000000E803000000002D
:1000B0006400000000000A000000000001000000D1
:1000C00000002C76D888DC674F0823DFC1DFAE59EB
:1000D000E1B1B796E5E3E453C63AE651997696E87E
:1000E000E6C28426EB898C9B62ED407C6FFCEFBC02
:1000F0009C9F40F2BAA56FA5F490055A2AF75C932D
:100100006B6CF9676DC11BFCE0E40D47FEF520E662
:10011000B500D0ED902E0300943577050080841E45
:10012000080000204E0A000000C80C333333330FA0
:10013000986E12831141EF8D2114893BE65516CF3D
:10014000FEE6DB18D1844B381BF77C1D901DA4BB49
:10015000E424203284725E228100C9F124ECA1E5FE
:100160003D27626C6E6B696E660076657200312E9B
:10017000312E3000682D626561740034350062757F
:1001800066662D696E003235360064657600417210
:100190006475696E6F20556E6F0063707500415411
:1001A0006D6567613332385000636F6E00573531CB
:1001B00030300066772D7479706500544D504C7561
:1001C000543472674E6774006275696C64004175DF
:1001D0006720203320323032322031363A31333A00
:1001E000313800000000000000250028002B00002E
:1001F000000000240027002A000000000023002641
:10020000002900040404040404040402020202029B
:1002100002030303030303010204081020408001CA
:100220000204081020010204081020000000080049
:100230000201000003040700000000000000008C21
:10024000018C018C018C018C018C018C018C018C46
:10025000018C018C018C018C018C018C018C018C36
:10026000018C018C018C018C018C018C018C018C26
:10027000018C018C018C018C018C018C018C01B1F1
:10028000088B018D088B016D0847088B018B018B52
:10029000018B018B018B018B018B018B018B018BFE
:1002A000018B018B018B018B018B018B018B018BEE
:1002B000018B018B018B018B018B018B018B010069
:1002C000DF2011241FBECFEFD8E0DEBFCDBF12E08C
:1002D000A0E0B1E0ECE6F2E602C005900D92A03F8E
:1002E000B107D9F726E0A0EFB2E001C01D92AB3113
:1002F000B207E1F711E0C1E6D1E004C02197FE01A9
:100300000E943530C036D107C9F70E94CB210C942A
:1003100034310C940000089508958CBD9DBD08955E
:1003200020E3FC0120833296862F82958F706F70B8
:100330006A3030F4605D6293682F8111F5CF0895C3
:10034000695CF9CFFC01818D928D08950895AF927B
:10035000BF92CF92DF92EF92FF920F931F93CF93B2
:10036000DF936C017B018B01040F151FEB015E0114
:10037000AE18BF08C017D10759F06991D601ED91A9
:10038000FC910190F081E02DC6010995892B79F748
:10039000C501DF91CF911F910F91FF90EF90DF90FA
:1003A000CF90BF90AF900895FC01538D448D252FC1
:1003B00030E0842F90E0821B930B541710F0CF96FF
:1003C000089501970895FC01918D828D981761F031
:1003D000A28DAE0FBF2FB11D5D968C91928D9F5F48
:1003E0009F73928F90E008958FEF9FEF0895FC0127
:1003F000918D828D981731F0828DE80FF11D858DDA
:1004000090E008958FEF9FEF0895FC01918D228D6C
:10041000892F90E0805C9F4F821B91098F739927F1
:10042000089589E893E00E94050221E0892B09F4F0
:1004300020E0822F089580E090E0892B29F00E942F
:10044000110281110C9400000895FC01A48DA80FE5
:10045000B92FB11DA35ABF4F2C91848D90E0019606
:100460008F739927848FA689B7892C93A089B18926
:100470008C91837080648C93938D848D981306C0C7
:100480000288F389E02D80818F7D80830895EF922B
:10049000FF920F931F93CF93DF93EC0181E0888F3E
:1004A0009B8D8C8D98131AC0E889F989808185FF0E
:1004B00015C09FB7F894EE89FF896083E889F989B0
:1004C00080818370806480839FBF81E090E0DF91B2
:1004D000CF911F910F91FF90EF900895F62E0B8D05
:1004E00010E00F5F1F4F0F731127E02E8C8D8E11C0
:1004F0000CC00FB607FCFACFE889F989808185FF27
:10050000F5CFCE010E942502F1CFEB8DEC0FFD2F30
:10051000F11DE35AFF4FF0829FB7F8940B8FEA89E1
:10052000FB8980818062CFCF682F89E893E00C94AB
:100530004702CF93DF93EC01888D8823B9F0AA8915
:10054000BB89E889F9898C9185FD03C0808186FD8E
:100550000DC00FB607FCF7CF8C9185FFF2CF8081DD
:1005600085FFEDCFCE010E942502E9CFDF91CF912B
:100570000895833081F028F4813099F08230A9F019
:1005800008958730A9F08830C9F08430B1F48091A3
:1005900080008F7D03C0809180008F7780938000E2
:1005A000089584B58F7784BD089584B58F7DFBCF82
:1005B0008091B0008F778093B00008958091B00053
:1005C0008F7DF9CF1F93CF93DF93282F30E0F90170
:1005D000E55DFD4F8491F901E95EFD4FD491F9018C
:1005E000ED5FFD4FC491CC23A9F0162F81110E941D
:1005F000B902EC2FF0E0EE0FFF1FEB51FE4FA5917B
:10060000B4918FB7F894EC91111108C0D095DE2306
:10061000DC938FBFDF91CF911F910895DE2BF8CF30
:10062000CF93DF9390E0FC01E95EFD4F24918D5F55
:100630009D4FFC0184918823C9F090E0880F991F99
:10064000FC01E151FE4FA591B491FC01EB51FE4F2D
:10065000C591D49161110DC09FB7F8948C912095EC
:1006600082238C938881282328839FBFDF91CF9199
:100670000895623051F49FB7F8943C91822F809591
:1006800083238C93E8812E2BEFCF8FB7F894EC91D6
:100690002E2B2C938FBFEACF1F93CF93DF93182F6E
:1006A000EB0161E00E941003209739F460E0812F94
:1006B000DF91CF911F910C94E202CF3FD10511F44D
:1006C00061E0F5CFE12FF0E0E55DFD4FE491E3302F
:1006D00031F140F4E130B1F0E230E1F0C038D10561
:1006E0007CF7E4CFE73029F1E83059F1E430B1F795
:1006F00080918000806280938000D0938B00C093B3
:100700008A0004C084B5806884BDC7BDDF91CF91E5
:100710001F91089584B5806284BDC8BDF7CF8091D4
:100720008000806880938000D0938900C093880007
:10073000EDCF8091B00080688093B000C093B3008B
:10074000E5CF8091B00080628093B000C093B40088
:10075000DDCF8E3008F08E508770806480937C00EF
:1007600080917A00806480937A0080917A0086FD7F
:10077000FCCF809178009091790008953FB7F8946C
:100780008091F6029091F702A091F802B091F902DF
:1007900026B5A89B05C02F3F19F00196A11DB11DDC
:1007A0003FBFBA2FA92F982F8827BC01CD01620F18
:1007B000711D811D911D42E0660F771F881F991FD3
:1007C0004A95D1F708958F929F92AF92BF92CF92A0
:1007D000DF92EF92FF926B017C010E94BE034B01FE
:1007E0005C01C114D104E104F104B9F00E94BE031C
:1007F000681979098A099B09683E7340810591054A
:1008000080F321E0C21AD108E108F10888EE880ED1
:1008100083E0981EA11CB11CE4CFFF90EF90DF9005
:10082000CF90BF90AF909F908F9008952FB7F8947E
:100830006091F2027091F3028091F4029091F502BE
:100840002FBF08954F925F926F927F92AF92BF92A7
:10085000CF92DF92EF92FF920F931F93CF93DF938C
:10086000EC016B017B01E40EF51E8B015801AC1805
:10087000BD080E151F0511F10E94160468877987BF
:100880008A879B87E881F9810284F385E02DCE0178
:10089000099597FF23C00E941604488459846A84EE
:1008A0007B8464197509860997094C805D806E8088
:1008B0007F80641575058605970520F3C501DF91D6
:1008C000CF911F910F91FF90EF90DF90CF90BF904D
:1008D000AF907F906F905F904F900895F801819353
:1008E0008F01C4CFFC0120812EBD9B012150310915
:1008F00041F051810DB407FEFDCF4EB55EBD419371
:10090000F5CF61507109860F971F0DB407FEFDCF1B
:100910002EB5FC0120830895E091FB02F091FC02CA
:1009200080819091FA02892B80830895E091FB02E7
:10093000F091FC0290818091FA0280958923808356
:1009400008958EBD00000DB407FEFDCF8EB508954D
:10095000AF92BF92CF92DF92EF92FF920F931F93CD
:10096000CF93DF93CDB7DEB728970FB6F894DEBFED
:100970000FBECDBF8C017B016A0180918803833358
:10098000E1F45801A40EB51EA016B10609F46FC01B
:100990000E94960480EF0E94A104812F0E94A1046E
:1009A000802F0E94A1040F5F1F4FF70181917F01EB
:1009B0000E94A1040E948C04E7CF5B01A40EB51E27
:1009C0008433C1F40E94960419830A838D2D8068B4
:1009D0008B83CC8264E070E0CE0101960E947204A9
:1009E000AE14BF0409F441C0F70181917F010E9458
:1009F000A104F6CF0E9496040F3F110509F028F4D8
:100A000019820A8384E08B830CC017FD17C01982FA
:100A10000A8333E0169507953A95E1F7007E0C605E
:100A20000B8386E0C816D104A0F5F701DE01149609
:100A3000EA15FB0599F081918D93FACFC80126E064
:100A4000969587952A95E1F7807E19830A8301158B
:100A5000104C10F48461D7CF8C61D5CFB6016D5F97
:100A60007F4FCE0101960E9472040E948C04C60141
:100A700028960FB6F894DEBF0FBECDBFDF91CF91A1
:100A80001F910F91FF90EF90DF90CF90BF90AF90AC
:100A9000089563E070E0CE0101960E947204F701B0
:100AA00081917F010E94A104AE14BF04C1F7DDCF84
:100AB000CF93DF931F92CDB7DEB7898341E050E03B
:100AC000BE016F5F7F4F90E080E00E94A8040F900E
:100AD000DF91CF91089590E020918803233339F47A
:100AE0000C96982F990F990F990F80E008954896CA
:100AF000F8CFDA01E091FE02F0E0FE2FEE27E60FDC
:100B0000F71F90E0982F8827A901BD018E0F9F1F26
:100B10000C94A804CF93DF9300D0CDB7DEB77983D0
:100B20006A8322E030E0AE014F5F5F4F60E170E02A
:100B30000E9479050F900F90DF91CF910895CF9388
:100B4000DF9300D0CDB7DEB779836A8322E030E04F
:100B5000AE014F5F5F4F64E070E00E9479050F9037
:100B60000F90DF91CF910895CF93DF931F92CDB770
:100B7000DEB72091FE0230E0322F2227260F371FEA
:100B800090E0982F8827498341E050E0BE016F5FD5
:100B90007F4F820F931F0E94A8040F90DF91CF9187
:100BA0000895CF93DF931F92CDB7DEB76983DC0141
:100BB000ED91FC910280F381E02D41E050E0BE0117
:100BC0006F5F7F4F09950F90DF91CF910895FC01E2
:100BD0009485FB018485981303C081E0943008F06C
:100BE00080E00895CF93DF931F92CDB7DEB769837E
:100BF000DC01ED91FC910280F381E02D41E050E0B9
:100C0000BE016F5F7F4F09950F90DF91CF910895DF
:100C10000895FF920F931F93CF93DF93EB01FC0195
:100C2000178A168A2A81211109C02B81211106C039
:100C30002C81211103C02D81222301F14115510581
:100C4000E9F08A01FC01F08C80E591E00E948D01C1
:100C5000AE014E5F5F4F24E030E06CE070E08F2D1E
:100C60000E947905B8018F2D0E948A0581E090E0ED
:100C7000DF91CF911F910F91FF90089580E0F7CF02
:100C8000FC01848595850895FC01848995890895E2
:100C90002DEA31E0FC0131832083FB014089518939
:100CA00062897389FC014283538364837583089549
:100CB000DC01ED91FC91048CF58DE02D099490E020
:100CC00080E008958EE00E94A903BC01990F880B73
:100CD000990B0E94F02D20E030E040EA50E40E94A1
:100CE0004F2E20E030EC4FE754E40E94A72F2AE07B
:100CF00037ED43E25CE30E94A72F089590E080E087
:100D00000E94940290E080E00C94940290E080E0D5
:100D10000E94940281E090E00C949402CF9380E3CF
:100D200090E00E94940289E893E00E940502892BDA
:100D3000D1F389E893E00E94E301C82F8093F00289
:100D400089E893E00E940502892BD1F389E893E0BA
:100D50000E94E30120E03C2FA901482BCA01CF915A
:100D60000895FC019485992369F080819181DC01CB
:100D7000ED91FC910688F789E02D099591E08111AC
:100D800001C090E0892F0895DC011C961C921C97ED
:100D90008D919C91DC01ED91FC910488F589E02D09
:100DA0000994FC01768765870895DC01ED91FC913B
:100DB000068CF78DE02D099591E089270895862FFF
:100DC000089581E08627089521E0FC018485843020
:100DD00008F020E0822F08958F929F92AF92BF92E9
:100DE000EF92FF920F931F93CF93DF93CDB7DEB7B0
:100DF000A1970FB6F894DEBF0FBECDBF7C01FA01FC
:100E0000CB0119A2223008F42AE08E010F5D1F4F9A
:100E1000822E912CB12CA12CBF01A50194010E941E
:100E2000762FF901CA016A3074F5605DD8016E93BE
:100E30008D01232B242B252B79F790E080E0109750
:100E400089F0FD0101900020E9F73197AF014A1BBD
:100E50005B0BD701ED91FC910280F381E02DB8018D
:100E6000C7010995A1960FB6F894DEBF0FBECDBF9E
:100E7000DF91CF911F910F91FF90EF90BF90AF90B6
:100E80009F908F900895695CD1CFFC010190002064
:100E9000E9F73197AF01481B590BBC018CE594E091
:100EA0000C94A7018F929F92AF92BF92CF92DF9244
:100EB000EF92FF920F931F93CF93DF937C01EB018F
:100EC0006C0182E0C80ED11C4701E5E08E0E911C3A
:100ED00010E000E0F60141916F0150E070E060E049
:100EE0002AE0CE010E94EC065C01E881F9810190C4
:100EF000F081E02D6EE2CE0109958A0D9B1D080F51
:100F0000191FC814D90431F7F701458150E070E08A
:100F100060E02AE0CE010E94EC06800F911FDF9175
:100F2000CF911F910F91FF90EF90DF90CF90BF90E6
:100F3000AF909F908F900895CF93DF93EC0160E086
:100F40008E810E94E20261E08E810E94E20260E0F6
:100F50008E810E94E2028BE891E00197F1F7DF9128
:100F6000CF910895CF92DF92EF92FF920F931F934C
:100F7000CF93DF936C017C0187E0E80EF11CD0E099
:100F8000C0E0062F10E0B8010C2E02C075956795E1
:100F90000A94E2F76170F70181917F010E94E202F9
:100FA0002196C430D10579F7C601DF91CF911F9109
:100FB0000F91FF90EF90DF90CF900C949C07CF9211
:100FC000DF92EF92FF920F931F93CF93DF93EC0189
:100FD000F62E642F8C810E94E2028D818F3F19F0E2
:100FE00060E00E94E2020F2D10E08F8584FF25C093
:100FF0006E0187E0C80ED11CF12CE12CB8010E2C3B
:1010000002C0759567950A94E2F76170F6018191C7
:101010006F010E94E202FFEFEF1AFF0A88E0E81674
:10102000F10461F7CE01DF91CF911F910F91FF90F5
:10103000EF90DF90CF900C949C07B80184E07595F9
:1010400067958A95E1F7CE010E94B2076F2DCE0118
:10105000DF91CF911F910F91FF90EF90DF90CF9094
:101060000C94B20740E0682F8CE594E00C94DF0705
:1010700090916F04691710F06FEF690FE62FF0E0A1
:10108000E45AFB4F9489890F80680C943208FB0165
:10109000808191810E94172B892B81F081E090E063
:1010A0000E94940281E090E00E94940261E087E057
:1010B0000E9438088FEA91E00C94450781E090E0A7
:1010C0000E94940290E080E00E94940261E087E038
:1010D0000E94380889EB91E0EFCFFB01808191817C
:1010E0000E94172B21E0009709F420E02093690368
:1010F000892B51F00E94860661E087E00E94380843
:1011000083EC91E00C9445070E947E0661E087E045
:101110000E9438088DEC91E0F5CFFB018081918130
:101120000E94172B21E0009709F420E02093680328
:10113000892B61F061E089E00E94E20260E087E0D3
:101140000E94380887ED91E00C94450760E089E043
:101150000E94E20260E087E00E94380881EE91E0A0
:10116000F3CFFB01808191810E94172B892B61F0C5
:1011700061E088E00E94E20260E087E00E943808B7
:101180008BEE91E00C94450760E088E00E94E2025B
:1011900060E087E00E94380885EF91E0F3CFCF93BD
:1011A000DF93823029F490916B04986090936B04E4
:1011B00080936F041092700480E48093710480E146
:1011C0008093720480E58093730461E080916004F1
:1011D0000E941003809161048F3F19F061E00E942A
:1011E000100361E0809162040E941003CCE5D4E01A
:1011F0009E012C55344080916B0484FD0BC084E02B
:1012000090E021962817390744F461E08E810E940E
:101210001003EECF88E090E0F4CF8BE39DE00197E0
:10122000F1F760E0809160040E94E20260E080914A
:1012300062040E94E202809161048F3F19F060E035
:101240000E94E20280916B0484FD39C063E08CE56A
:1012500094E00E94B207CBE4D6E4CE010197F1F707
:1012600063E08CE594E00E94B2072197F1F763E018
:101270008CE594E00E94B20783E592E00197F1F7D4
:1012800062E08CE594E00E94B20780916B0480627A
:101290000E94320884E080936C048CE00E94320843
:1012A00081E00E9432088BE39FE10197F1F782E031
:1012B00080936D0486E0DF91CF910C9432088062B8
:1012C0000E9432088BE496E40197F1F780916B0459
:1012D00080620E94320883E592E00197F1F78091E5
:1012E0006B0480620E943208D0CF41E00E94DF0789
:1012F00081E090E00895AF92BF92CF92DF92EF929B
:10130000FF920F931F93CF93DF9300D000D0CDB700
:10131000DEB78C016B017A01809188038333E9F495
:101320005B016801C40ED51EC016D106A9F10E944A
:1013300096048FE00E94A104812F0E94A104802FB7
:101340000E94A1040F5F1F4F80E00E94A104F501DD
:1013500081935F010E948C04E7CF843369F50E947A
:10136000960419830A838F2D8F778B83EC8264E038
:1013700070E0CE0101960E947204A70170E060E067
:10138000C6010E940E31E114F10421F0B701C6013B
:101390000E9472040E948C04C7010F900F900F905E
:1013A0000F90DF91CF911F910F91FF90EF90DF9001
:1013B000CF90BF90AF9008950E9496040F3F110503
:1013C00009F030F419820A831B8263E070E0D1CF08
:1013D00017FD0BC019820A8333E0169507953A95DD
:1013E000E1F7007E08600B83F0CFC80126E09695F8
:1013F00087952A95E1F7807E19830A830115104CA1
:1014000018F480618B83E1CF8861FCCFCF93DF93A9
:101410001F92CDB7DEB72091FE0230E0322F222797
:10142000260F371F90E0982F882741E050E0BE013B
:101430006F5F7F4F820F931F0E947B0989810F90FE
:10144000DF91CF910895CF93C82F462F61E070E0D0
:101450000E94B40561E070E08C2F0E94060A8111A1
:10146000F9CFCF910895CF93C82F80E591E00E94E6
:101470008D0168E070E08C2FCF910C94230ACF93FC
:10148000C82F80E591E00E948D0160E170E08C2F13
:10149000CF910C94230ACF93DF93EC01888D843095
:1014A00020F40E943F0A84E0888FDF91CF91089555
:1014B000CF93C82F80E591E00E948D0163E070E03A
:1014C0008C2FCF910C94060ACF93DF93EC018C857F
:1014D0008430D0F40E94580A843189F0882379F04E
:1014E000883169F021E08C3159F4E881F981008478
:1014F000F185E02DCE01099521E0892B09F420E04A
:10150000822FDF91CF91089580E0FBCFCF92DF92C1
:10151000EF92FF92CF93DF93EC018C85843068F4D7
:101520000E94330A0E9416046B017C018C850E9484
:10153000580A811109C084E08C87DF91CF91FF9018
:10154000EF90DF90CF90089561E070E080E090E050
:101550000E94E3030E941604AB01BC014C195D0913
:101560006E097F098D859E85B0E0A0E04817590778
:101570006A077B07D8F28C850E943F0ADCCFCF93A5
:10158000FC01C08D80E591E00E948D0160E270E079
:101590008C2F0E94230A62E070E08C2F0E94060AC2
:1015A00084FD16C062E070E08C2F0E94060A83FF63
:1015B0000AC048E162E070E08C2F0E94B40580E030
:1015C00090E0CF91089580E591E00E948D01E3CFF6
:1015D00040E162E070E08C2F0E94B40581E0F0CF22
:1015E000CF93DF931F92CDB7DEB741E050E0BE014D
:1015F0006F5F7F4F90E080E00E947B0989810F90B0
:10160000DF91CF910895CF93DF93C4E1D0E00E94A2
:10161000F00A882361F061E070E080E090E00E94D1
:10162000E3032197A1F780E0DF91CF91089581E056
:10163000FBCF1F93CF93DF931F92CDB7DEB7182F49
:1016400080E591E00E948D01812F0E946B0527E0CB
:10165000129FF0011124E459FC4F2281338137702D
:1016600041E050E0BE016F5F7F4F820F931F0E94E9
:101670007B0989810F90DF91CF911F910895FC0123
:10168000808D843040F4218D328D232B21F00E94F7
:10169000190B90E008958FEF9FEF0895CF93DF939C
:1016A000FC012485243028F08FEF9FEFDF91CF914C
:1016B0000895EC010190F081E02D0084F185E02D8A
:1016C0000995892B89F38C850E94190B90E0EECF48
:1016D000DA01E091FE02F0E0FE2FEE27E60FF71FA1
:1016E00090E0982F8827A901BD018E0F9F1F0C94B1
:1016F0007B098F929F92AF92BF92CF92DF92EF922F
:10170000FF921F93CF93DF93CDB7DEB72C970FB621
:10171000F894DEBF0FBECDBF2091880314E02223D2
:1017200039F16B017C0180E591E00E948D015E0141
:1017300027E0A20EB11C450110E063E070E0812FAC
:101740000E94060AF40181934F01882349F11F5F2B
:10175000143099F710E0F50181915F018D31D9F0D6
:101760008831C9F08A518230B0F01F5F143099F788
:10177000812F2C960FB6F894DEBF0FBECDBFDF9140
:10178000CF911F91FF90EF90DF90CF90BF90AF90DF
:101790009F908F90089560E170E0812F0E94230A4E
:1017A000A12EB12C83EE93E00197F1F742E870E0AF
:1017B00060E0812F0E94B4054FEF62E070E0812F5E
:1017C0000E94B405B601C114D10491F480912101A5
:1017D0009091220101968115F0EC9F0708F45CC0FE
:1017E0009093220180932101609121017091220147
:1017F000812F0E949F0586E0EDE2F1E0DE01119667
:1018000001900D928A95E1F7F70183818F778C83A0
:1018100084818D8385818E83A7014E5F5F4F24E095
:1018200030E06CE070E0812F0E947905B601812FD5
:101830000E948A0526E030E0AE014F5F5F4F66E010
:1018400070E0812F0E94790561E070E0812F0E9495
:10185000230A27E02A9DC0012B9D900D11249C0195
:1018600024593C4F7901F9011182108222E030E0C5
:10187000AE01455F5F4F68E270E0812F0E94680B08
:101880008B859C85982789279827F70193838283E6
:101890001682158214826CCF80E090ECA1CFCF929B
:1018A000DF92EF92FF920F931F93CF93DF9300D0BD
:1018B00000D000D0CDB7DEB78C016B017A01FC01FE
:1018C000808D843010F40E943F0A8DEA91E09A8363
:1018D0008983F60182819381A481B5818B839C8366
:1018E000AD83BE83B701CE0101960E94790BF8014A
:1018F000808F8430A0F4F586E486128E118E81E00C
:1019000026960FB6F894DEBF0FBECDBFDF91CF9104
:101910001F910F91FF90EF90DF90CF90089580E09E
:10192000EFCFAF92BF92CF92DF92EF92FF920F93E1
:101930001F93CF93DF9300D000D000D0CDB7DEB798
:10194000082F6B0180E591E00E948D019E012F5FC1
:101950003F4F7901590110E063E070E0812F0E9450
:10196000060AF50181935F01882341F11F5F14305E
:1019700099F710E0F70181917F018D31D1F0883125
:10198000C1F08A518230A8F01F5F143099F7812F7F
:1019900026960FB6F894DEBF0FBECDBFDF91CF9174
:1019A0001F910F91FF90EF90DF90CF90BF90AF907D
:1019B000089560E170E0812F0E94230AE12EF12C4E
:1019C00083EE93E00197F1F7402F70E060E0812F04
:1019D0000E94B4054FEF62E070E0812F0E94B405D1
:1019E000B601CD2889F480912101909122010196C0
:1019F0008115F0EC9F0798F19093220180932101CB
:101A00006091210170912201812F0E949F0561E068
:101A100070E0812F0E94230A27E02E9DC0012F9D98
:101A2000900D11249C0124593C4F7901F901118238
:101A3000108222E030E0AE014B5F5F4F68E270E061
:101A4000812F0E94680B8D819E8198278927982776
:101A5000F7019383828316821582148298CF80E0E7
:101A600090ECCACFCF92DF92EF92FF921F93CF9369
:101A7000DF93EC017B016A018C85843048F40E947D
:101A8000580A882319F08C850E94330A84E08C87D9
:101A9000F70182819381A481B5810097A105B105E9
:101AA00051F490E080E0DF91CF911F91FF90EF9093
:101AB000DF90CF9008958F3F9F4FAF4FBF4F89F377
:101AC00080918803811103C084E08C87EACF70E0A5
:101AD00060E081E20E94910C182F8C87843008F717
:101AE00080E591E00E948D01A7014E5F5F4F24E0E9
:101AF00030E06CE070E0812F0E947905B601812F03
:101B00000E948A0564E070E0812F0E94230A0E94EF
:101B100016046B017C018C850E94580A873109F1FB
:101B20008C31F9F0882309F4BCCF0E941604AB0174
:101B3000BC014C195D096E097F098D859E85B0E059
:101B4000A0E084179507A607B70738F061E070E0BA
:101B500080E090E00E94E303DECF8C850E943F0A84
:101B6000B3CF81E090E09FCF0F931F93CF93DF938C
:101B7000EC018B01888D843010F40E943F0A809123
:101B80008803811107C094E0988FDF91CF911F9156
:101B90000F910895B80182E00E94910C888F8430E3
:101BA00030F41D870C871A8E198E81E0EECF80E00D
:101BB000ECCF7F928F929F92AF92BF92CF92DF92A3
:101BC000EF92FF920F931F93CF93DF9300D0CDB787
:101BD000DEB7782E8B014A01590122E030E0AE01D8
:101BE0004F5F5F4F64E270E00E94680BE980FA800B
:101BF000FE24EF24FE24E00EF11E97013770409181
:101C00008803072D10E0433309F042C0085F1F4FDF
:101C1000102F0027110F110F110FC901800F911FF5
:101C20004733C9F1A9014A0D5B1D4130584098F175
:101C300060E078E06B01C21AD30AA601B4010E94E9
:101C4000A804A5014C195D09B4016C0D7D1DC801E6
:101C50000E94A804EA0CFB1CF982EA8222E030E030
:101C6000AE014F5F5F4F64E270E0872D0E947905FF
:101C70000F900F90DF91CF911F910F91FF90EF90F8
:101C8000DF90CF90BF90AF909F908F907F900895FE
:101C9000005F1F4FBDCFA501B401DACFEF92FF92D5
:101CA0001F93CF93DF9300D0CDB7DEB7182F22E07C
:101CB00030E0AE014F5F5F4F60E270E00E94680B62
:101CC000E980FA80FE24EF24FE2422E030E0AE0119
:101CD0004F5F5F4F60E270E0812F0E94680B898147
:101CE0009A81982789279827E816F90689F487E0CA
:101CF000189FF0011124E459FC4FF582E482C701DA
:101D00000F900F90DF91CF911F91FF90EF9008956A
:101D10007C01DBCF1F93CF93DF93182F80E591E0F9
:101D20000E948D01812F0E944E0EEC0163E070E055
:101D3000812F0E94060A873121F08C3111F0D0E00A
:101D4000C0E0CE01DF91CF911F910895CF93DF9333
:101D5000EC018C85843060F40E94580A873111F0C0
:101D60008C3131F48C850E948A0E8115984088F35D
:101D7000DF91CF910895FC018485843010F40C9498
:101D80008A0E90E080E008959F92AF92BF92CF922A
:101D9000DF92EF92FF920F931F93CF93DF938C010B
:101DA0005B01942EE52EFC01C688D788F08C80E577
:101DB00091E00E948D018F2D0E944E0EC92DDE2DC7
:101DC0008C179D0708F4EC019E01A501B6018F2D2B
:101DD0000E94D90DF801868997898C0F9D1F978BDA
:101DE000868BCE01DF91CF911F910F91FF90EF90E5
:101DF000DF90CF90BF90AF909F9008958F929F9269
:101E0000AF92BF92CF92DF92EF92FF920F931F9308
:101E1000CF936C015B018A01FC01C485C430F0F5ED
:101E20007A014130584018F0E12C88E0F82E80E526
:101E300091E00E948D018C2F0E944E0E4C0163E0B8
:101E400070E08C2F0E94060A873111F08C3149F521
:101E50008E149F0460F380E591E00E948D0197014C
:101E6000A50170E060E08C2F0E94D90D60E270E067
:101E70008C2F0E94230A62E070E08C2F0E94060AD9
:101E800084FD17C063E070E08C2F0E94060A811168
:101E90000BC081E090E0F6019383828310E000E0C4
:101EA00010C0F12CE12CD7CF80E591E00E948D018C
:101EB000E2CF40E162E070E08C2F0E94B405EF2891
:101EC00041F3C801CF911F910F91FF90EF90DF90E8
:101ED000CF90BF90AF909F908F900895FF920F93F7
:101EE0001F93CF93DF9300D0CDB7DEB7F82E22E05B
:101EF00030E0AE014F5F5F4F66E270E00E94680B1A
:101F000009811A8110270127102722E030E0AE0155
:101F10004F5F5F4F66E270E08F2D0E94680B8981F2
:101F20009A819827892798270817190749F4C80123
:101F30000F900F90DF91CF911F910F91FF90089517
:101F40008C01E3CF1F93CF93DF93182F87E0189F67
:101F5000E0011124C459DC4F88819981009761F414
:101F600080E591E00E948D01812F0E946E0F2E81ED
:101F7000821B910999838883DF91CF911F910895E6
:101F8000FC018485843010F40C94A20F90E080E072
:101F900008954F925F927F928F929F92AF92BF92DD
:101FA000CF92DF92EF92FF920F931F93CF93DF9325
:101FB00000D0CDB7DEB7782E6B014A01A82EB12C28
:101FC00027E0829FC0011124FC01E459FC4F7F01EE
:101FD0000081118180E591E00E948D0108151905AD
:101FE00054F4872D0E946E0FF70126818C01021B8D
:101FF0001109118300830115110529F563E070E0D3
:10200000872D0E94060A843159F0882349F001E0A7
:1020100010E08C3111F410E000E0119501951109E8
:10202000C8010F900F90DF91CF911F910F91FF90FA
:10203000EF90DF90CF90BF90AF909F908F907F9068
:102040005F904F900895801691060CF4840187E00C
:102050008A9DF0018B9DF00D1124E459FC4FE28024
:10206000F380C114D10451F12701F7E05F22872DDD
:102070000E946B05840D951D20918803273309F478
:1020800053C09801240D351D2130384008F44CC050
:1020900020E038E0490184189508A401B6010E94A7
:1020A0007B092601480C591C6801C818D908872DDE
:1020B0000E946B05A601B2010E947B09E00EF11E91
:1020C00087E08A9DF0018B9DF00D1124E459FC4FAF
:1020D000F382E28220813181201B310B3183208306
:1020E0008681800F912F911D8A3F910510F4232B3B
:1020F000F1F487E08A9DF0018B9DF00D1124E459E5
:10210000FC4F1682F982EA8222E030E0AE014F5F96
:102110005F4F68E270E0872D0E94790560E470E00F
:10212000872D0E94230A7CCFA801B601C5CF8683E4
:1021300077CFCF93DF93FC01218D328D21153105AF
:1021400029F48FEF9FEFDF91CF910895EC01808DFF
:102150004217530708F0A9010E94C90F1816190663
:1021600084F7298D3A8D281B390B3A8F298FEBCFB5
:102170000F931F93CF93DF931F92CDB7DEB7FC0170
:10218000218D328D232B41F48FEF9FEF0F90DF9144
:10219000CF911F910F9108958C0141E050E0BE0155
:1021A0006F5F7F4FFC01808D0E94C90F18161906C2
:1021B0005CF7F801818D928D0197928F818F8981D3
:1021C00090E0E4CFCF93DF931F92CDB7DEB741E02D
:1021D00050E0BE016F5F7F4FFC0184850E94C90FF4
:1021E0001816190634F4898190E00F90DF91CF9191
:1021F00008958FEF9FEFF9CFFC018485843010F4B0
:102200000C94C90F90E080E008950F931F93CF9333
:10221000DF9300D0CDB7DEB7FC0124852430E0F495
:102220008C0180E591E00E948D0122E030E0AE015A
:102230004F5F5F4F60E170E0F80184850E94680B9A
:1022400089819A819827892798270F900F90DF918D
:10225000CF911F910F91089590E080E0F6CF0F93FA
:102260001F93CF93DF9300D0CDB7DEB7FC01248559
:102270002430E0F48C0180E591E00E948D0122E0A1
:1022800030E0AE014F5F5F4F64E070E0F80184859D
:102290000E94680B89819A819827892798270F9037
:1022A0000F90DF91CF911F910F91089590E080E002
:1022B000F6CFDC018DEA91E08D939D9384E0FB01E4
:1022C00001900D928A95E1F70895EF92FF920F9396
:1022D0001F93CF93DF9300D000D0CDB7DEB78C0132
:1022E0007B01FB0184858430A8F08DEA91E0F80140
:1022F000918380831282138214821582C8010F9009
:102300000F900F900F90DF91CF911F910F91FF9041
:10231000EF90089580E591E00E948D0124E030E087
:10232000AE014F5F5F4F6CE070E0F70184850E9463
:10233000680BBE016F5F7F4FC8010E945911DECF4D
:102340000F931F93CF93DF93CDB7DEB728970FB6C8
:10235000F894DEBF0FBECDBF8C01D80159964D91C8
:102360005C915A974115510551F0ED91FC91048C07
:10237000F58DE02D70E060E0C8010995EECFF80121
:10238000808D0E94A20F892BB1F148E050E0BE0180
:102390006F5F7F4FD80158968C910E94C90F181615
:1023A0001906F4F4D801509684E0FE0131960190AC
:1023B0000D928A95E1F78D8190E0982F88272E81E4
:1023C000820F911DF801958B848B8F81282F30E02F
:1023D000322F22278885820F932F911D928F818F14
:1023E00028960FB6F894DEBF0FBECDBFDF91CF9118
:1023F0001F910F91089590E080E0F2CF4F925F928D
:102400006F927F928F929F92AF92BF92CF92DF9204
:10241000EF92FF920F931F93CF93DF93CDB7DEB769
:1024200063970FB6F894DEBF0FBECDBF7C016B0182
:102430003A01FB0120E090E080E06AE03191332333
:1024400009F461C040ED430F4A3008F04DC0689F69
:10245000A001699F500D1124CA01C097830F911DDF
:1024600037FD9A958F3F910549F340F3F70142817B
:102470005381648175818091520490915304A0919D
:102480005404B0915504481759076A077B0709F4AB
:102490000DC28701085F1F4F0E9416046F707727D7
:1024A0007C5FC8010E94B40D813009F004C28DEA3E
:1024B00091E09A838983F70182819381A481B58118
:1024C0008B839C83AD83BE8345E350E0BE016F5F89
:1024D0007F4FC8010E940906892BA9F5D12CC12C78
:1024E000C8010E944B0A17C03E3209F0BFCF23300B
:1024F00009F4BCCFD301A20FB11D12968C932F5FAC
:1025000090E080E09BCF233009F0B0CFF3018583CA
:10251000CC24C394D12CC60163960FB6F894DEBFC9
:102520000FBECDBFDF91CF911F910F91FF90EF9024
:10253000DF90CF90BF90AF909F908F907F906F90E3
:102540005F904F9008950E941604F7017783668389
:1025500042E050E0B7016A5F7F4FC8010E94C40E9D
:1025600081E090E09A83898342E050E0BE016F5F92
:102570007F4FC8010E94C40E80E091E09A83898356
:1025800042E050E0BE016F5F7F4FC8010E94C40E61
:102590001A82198242E050E0BE016F5F7F4FC8018E
:1025A0000E94C40E42E050E0BE016F5F7F4FC80141
:1025B0000E94C40E42E050E0BE016F5F7F4FC80131
:1025C0000E94C40E5601F6018081882301F1650145
:1025D000F60181912F01882311F08E32B1F446016A
:1025E0008A189B081814190474F48D8641E050E091
:1025F000BE01635F7F4FC8010E94C40EA401B501F4
:10260000C8010E94C40E5201DECF6201E1CF1D86D7
:1026100041E050E0BE01635F7F4FC8010E94C40EDD
:10262000C12CDD24D394DA82C98242E050E0BE019D
:102630006F5F7F4FC8010E94C40EDA82C98242E0F8
:1026400050E0BE016F5F7F4FC8010E94C40EC801F9
:102650000E94BF0A892B09F441CFF3E0AF2EB12CC1
:10266000230122E0420E511CD4C0F7014281538164
:1026700064817581808D918DA28DB38D4817590726
:102680006A077B0709F008C1848D958DC59709F00D
:1026900003C181A192A15DEFC52EDD24DA940C97D0
:1026A0000CF4ADC04CE050E0BE016F5F7F4FC8013D
:1026B0000E9499108B819C819827892798279A8B53
:1026C000898BF7014681578129813A814217530747
:1026D00009F0E7C097FFE5C08F7092703BEFC32E03
:1026E000DD24DA94892B09F08AC06F8078847624FF
:1026F000672476242AEFC22EDD24DA946114710453
:1027000009F47DC0D12CC12C8D819E819827892709
:102710009827C816D906F8F441E050E0BE01635F7F
:102720007F4FC8010E9499104D85442331F050E03D
:1027300070E060E0C8010E9499108D858111ECCF96
:1027400044E050E070E060E0C8010E949910FFEFA3
:10275000CF1ADF0AD9CF912C812C41E050E0BE0185
:102760006D5E7F4FC8010E9499104B89842F807C39
:1027700009F06CC0442331F050E070E060E0C80123
:102780000E9499108B898111E8CF42E050E0BE0190
:10279000615F7F4FC8010E94991042E050E0BE0186
:1027A000635F7F4FC8010E94991044E050E070E0E1
:1027B00060E0C8010E94991042E050E0BE016F5EE7
:1027C0007F4FC8010E9499108F85988949895A893D
:1027D0008115914009F043C0CD84DE84DC24CD24F2
:1027E000DC2481E0C816D104D1F54115544009F02C
:1027F0004AC044E050E0B201C8010E94991021E0B3
:10280000A21AB10809F46CCEFFEFCF16DF0609F06B
:1028100067CE0E9416043B014C01C8010E94A01122
:10282000181619060CF421CF0E94160466197709B0
:1028300088099909693873418105910548F562E372
:1028400070E080E090E00E94E303E7CF41E050E0D9
:1028500070E060E0C8010E9499101B8A93CF542752
:102860004527542770E060E0C8010E949910FFEFEF
:102870008F1A9F0A6814790409F06FCF96EFC92E5A
:10288000DD24DA94BCCFE7EFCE2EDD24DA94B7CF87
:10289000CC24CA94DC2CB3CF6EEFC62EDD24DA94A0
:1028A000AECF4CEFC42EDD24DA94A9CF8EEFC82E24
:1028B000DD24DA9430CED12CC12C2DCECF92DF92F4
:1028C000EF92FF920F931F93CF93DF93CDB7DEB7B5
:1028D000AF970FB6F894DEBF0FBECDBF7C016A0183
:1028E0000DEA11E01A8309831C861B8688EE93E0AB
:1028F000A0E0B0E08D879E87AF87B88B87E391E03B
:102900009A878987188F0F8B198E1A8E1B8E1C8EB3
:1029100084E089A31BA70AA71CA61DA61EA61FA6A6
:102920008091460490914704A0914804B0914904D5
:102930008EA39FA3A8A7B9A78B839C83AD83BE83D7
:1029400018861F82AE01465D5F4FCE0101960E9440
:10295000FE1181309105B1F4D701ED91FC9104880D
:10296000F589E02D1DA30CA38CA59DA5AEA5BFA543
:102970008EA39FA3A8A7B9A7A601BE016C5D7F4F38
:10298000C7010995AF960FB6F894DEBF0FBECDBF55
:10299000DF91CF911F910F91FF90EF90DF90CF903B
:1029A0000895CF92DF92EF92FF920F931F93CF93F0
:1029B000DF93CDB7DEB7AF970FB6F894DEBF0FBE8B
:1029C000CDBF8C016B017A018DEA91E09A838983F6
:1029D0001B821C821D821E821C861B8648EE53E0D1
:1029E00060E070E04D875E876F87788B27E331E08A
:1029F0003A872987988F8F8B198E1A8E1B8E1C8E83
:102A000024E029A39BA78AA71CA61DA61EA61FA675
:102A1000D8011C968C91843060F40E94580A882357
:102A200021F0F80184850E94330A84E0D8011C96C5
:102A30008C938091460490914704A0914804B091F2
:102A400049048EA39FA3A8A7B9A78B839C83AD83BA
:102A5000BE8318861F82AE01465D5F4FB601CE0170
:102A600001960E94FE110097C1F0D801ED91FC91F2
:102A70000684F785E02D8DEA91E09DA38CA38CA5BB
:102A80009DA5AEA5BFA58EA39FA3A8A7B9A7A70183
:102A9000BE016C5D7F4FC8010995AF960FB6F894E3
:102AA000DEBF0FBECDBFDF91CF911F910F91FF9081
:102AB000EF90DF90CF9008957F928F929F92AF9288
:102AC000BF92CF92DF92EF92FF920F931F93CF931B
:102AD000DF93CDB7DEB7A6970FB6F894DEBF0FBE73
:102AE000CDBF8C01762E942E852E20E2A22ECE0113
:102AF00001967C01DC01EA2D1D92EA95E9F7680157
:102B0000F3E4CF0ED11C8DEA91E09AA389A38FEF55
:102B10008BA38CA38DA38EA343E450E0BE016F5D15
:102B20007F4FC6010E940906019609F4BFC081E0EB
:102B300089838A8386E0B82EBB821C82D8011496D2
:102B40006D917D918D919C9117970E942E306D8390
:102B50007E838F83988789869A8680E890E09C8719
:102B60008B874CE150E0B701C6010E94C40EFE0104
:102B700037968AE1DF011D928A95E9F74801B8E0AE
:102B80008B0E911CF401D70101900D92BA94E1F7DC
:102B900040E150E0B701C6010E94C40EF701119256
:102BA000AA94E9F796E0A92EB12C40E250E0B701D3
:102BB000C6010E94C40EF1E0AF1AB108B1F783E676
:102BC000898392E89A8393E59B838C8385E38D8345
:102BD00081E08E837F829DE3988797E099878A873B
:102BE00086E0F401DE011B9601900D928A95E1F7D3
:102BF0008CE0898B8A8B6FEF71E0CE0143960E9447
:102C00001E31D8011B966C91CE0149960E9490010D
:102C1000F8016485CE014B960E949001D8011D9663
:102C20006C91CE014D960E9490014EE150E0B701AB
:102C3000C6010E94C40EB3E07B121EC082E38983EA
:102C400084E08A83F80196859B8397859C8390898D
:102C50009D8391899E8396E39F838887828D898750
:102C6000838D8A87848D8B87858D8C874CE050E09F
:102C7000B701C6010E94C40E87E3898386E08A8378
:102C800091E09B8393E09C838D838FE08E838AE326
:102C90008F838BE388878FEF898749E050E0B70106
:102CA000C6010E94C40EC6010E94BF0AA6960FB6B6
:102CB000F894DEBF0FBECDBFDF91CF911F910F9172
:102CC000FF90EF90DF90CF90BF90AF909F908F904C
:102CD0007F9008950F931F93CF93DF93EC01FB0137
:102CE00001900020E9F78F01061B170B8A819B8159
:102CF000A801480F591F2C813D812417350768F022
:102D000028813981A801820F931F0E9405314A81D1
:102D10005B81400F511F5B834A83DF91CF911F91ED
:102D20000F9108950F931F93CF93DF93EC01888148
:102D30009981009759F02A813B812617370730F097
:102D400081E0DF91CF911F910F9108958B016F5F0B
:102D50007F4F0E943B30009759F0998388831B83F3
:102D60000A832C813D81232B59F7FC011082E8CF87
:102D700080E0E7CF3F924F925F926F927F928F9267
:102D80009F92AF92BF92CF92DF92EF92FF920F93FA
:102D90001F93CF93DF93CDB7DEB7EA970FB6F894C2
:102DA000DEBF0FBECDBF7C012A013B0169010E943D
:102DB00016044B015C0187010D5B1F4FC8010E9487
:102DC000A011181619069CF00E94160468197909BA
:102DD0008A099B09461657066806790608F466C1F3
:102DE00062E370E080E090E00E94E303E7CF42E21C
:102DF00050E0BE016F5F7F4FC8010E94991089812A
:102E00008230D1F0312C832DEA960FB6F894DEBFD4
:102E10000FBECDBFDF91CF911F910F91FF90EF902B
:102E2000DF90CF90BF90AF909F908F907F906F90EA
:102E30005F904F903F900895F8018489958983347D
:102E4000910501F76D817E818F8198850E942E30DA
:102E50004B015C01F60180829182A282B38246E03E
:102E600050E0B701685F7F4FCE014D960E94F83069
:102E7000892B41F6F70180819181A281B381881667
:102E80009906AA06BB0608F4BDCF84819581A68168
:102E9000B78188159905AA05BB0508F4B3CF8989C0
:102EA0009A89AB89BC8986879787A08BB18B4EECBA
:102EB00050E070E060E0C8010E949910312CC70119
:102EC000829698AB8FA7F701B696FAABE9AB089656
:102ED0009CAB8BAB67019AE1C90ED11CBD96FEABD2
:102EE000EDABC701429698AF8FABFD97FAAFE9AF54
:102EF0004701FEE18F0E911CF801818D928D18160D
:102F000019060CF080CFC8010E94B81083339105D8
:102F100009F4B2C014F58130910509F464C044F499
:102F2000892B51F3C8010E94B810AC01552775C018
:102F30008330910509F462C00697A1F7C8010E9489
:102F4000B810B82E44E050E0B401C8010E949910B6
:102F5000EB2DE450FF0BAF0160C08A33910509F4FB
:102F60005FC084F585339105B1F1C697D9F6C801E4
:102F70000E94B8105C01B601CE0189960E945911D9
:102F80008BA59CA5ADA5BEA5892B8A2B8B2BB1F05B
:102F9000EDA9FEA94080518062807380B601CE0108
:102FA00083960E9459118DA19EA1AFA1B8A5A5013C
:102FB000481659066A067B0609F0B8CF44E050E08F
:102FC000B60118C08B33910509F440C08F3F9105BD
:102FD00009F492CFA7CFC8010E94B810C8010E947F
:102FE000B810382E89CFC8010E94B81044E050E0D4
:102FF0006FA978ADC8010E9499107ECFC8010E94C8
:10300000B810B82E44E050E069AD7AADC8010E9416
:1030100099108B2D8450990BAC0170E060E0EACFE1
:10302000C8010E94B81044E050E069A97AA9C8011B
:103030000E949910F70166A177A180A591A50E9431
:103040002E3066A377A380A791A756CFC8010E9410
:10305000B81044E050E06BA97CA9C8010E94991007
:10306000F70162A573A584A595A50E942E3062A7DD
:1030700073A784A795A740CFC8010E94B81044E069
:1030800050E06FA578A9C8010E949910F70162A1CC
:1030900073A184A195A10E942E3062A373A384A37F
:1030A00095A366A777A780AB91AB26CF33243A943C
:1030B000AACE0F931F93CF93DF93CDB7DEB762975E
:1030C0000FB6F894DEBF0FBECDBF8C01CB014AE036
:1030D000BE016F5F7F4F0E94652BBE016F5F7F4F08
:1030E000C8010E946A1662960FB6F894DEBF0FBE42
:1030F000CDBFDF91CF911F910F9108953F924F92D5
:103100005F926F927F928F929F92AF92BF92CF9277
:10311000DF92EF92FF920F931F93CF93DF93CDB780
:10312000DEB7A1970FB6F894DEBF0FBECDBF5C012E
:103130000DB71EB719A308A360E070E0CB010E9491
:10314000E303D50157968D919C915897912C029746
:1031500009F495C056968C9156978F5F56968C932E
:10316000569754962D913C91232B19F099249394C2
:103170007FC08330D8F7F501808191810E94B1062C
:10318000882309F43CC38E010F5F1F4F3801D5011E
:10319000ED91FC9180819181DC01ED91FC910084A5
:1031A000F185E02D0995181619060CF028C3D501F4
:1031B000ED91FC9145E050E0BE01695E7F4F80815A
:1031C00091810E942204009711F3059709F04AC0EB
:1031D000888D998D982789279827998F888FEA8CD1
:1031E000FB8CFE24EF24FE24FB8EEA8E892BD1F18A
:1031F0008F89811169C00E941604F5016683778367
:10320000808791872789308D4A8D5B8D232B09F02C
:1032100056C0288D398D2130310509F050C0493014
:103220005105E1F0483C510519F044305105D1F405
:10323000D5011E966D937D938D939C935197E1E0FC
:10324000F0E05896FC93EE935797C5010E947520C5
:1032500060E070E0CB010E94E30399CF83E090E04F
:10326000908F878BD5018D919C910E94C406912CE3
:10327000D50156968C915697815056968C93892DF0
:10328000E8A1F9A10FB6F894FEBF0FBEEDBFA1965D
:103290000FB6F894DEBF0FBECDBFDF91CF911F9167
:1032A0000F91FF90EF90DF90CF90BF90AF909F90E5
:1032B0008F907F906F905F904F903F900895453032
:1032C000510509F064CFCECFF50180819181F1E005
:1032D000EF16FF0640F0D50158961C921E925797A4
:1032E0000E94C40654CF8DB69EB697012F5F3F4F04
:1032F000EDB7FEB7E21BF30B0FB6F894FEBF0FBE9F
:10330000EDBF0DB71EB70F5F1F4FA701B801DC015E
:103310008D919C910E9422048E159F0509F06AC030
:10332000EA8DFB8DE00FF11F10820E941604F5015B
:1033300066837783808791878F89813109F44AC2B8
:1033400058F58630D1F08F3009F4AEC0823051F597
:10335000D50157968D919C915897892B71F4E1E096
:10336000F0E05896FC93EE935797C5010E947520A4
:1033700060E070E0CB010E94E303488D598DD12CB1
:10338000C12CF12CE12C08EC10E030E020E060E0F2
:10339000C5010E94F91C12C08D31D1F258F484315C
:1033A00009F482C0F501108E178A808191810E94F4
:1033B000C40604C0893241F08733A1F70FB6F894F0
:1033C0009EBE0FBE8DBEE3CE84819581892B39F4DC
:1033D00080E490E00E944E29F50195838483EA8C75
:1033E000FB8CE00EF11E1A830983FC82EB820E1522
:1033F0001F0530F00FB6F8949EBE0FBE8DBE32CFC3
:1034000040E450E0B801D50114968D919C910E9442
:103410002531D5011496ED91FC9117AEC3010E94A0
:103420005320FC018081918100E510E08E159F05FD
:1034300060F489819A81009799F12B813C818217F0
:10344000930770F50E94352B8B01D5018D919C91CE
:103450000E94C406D501ED91FC91119714968D91AF
:103460009C911597918780871387028758961C92A5
:103470001E9257970E941604DC01CB018858934195
:10348000A109B109F50182879387A487B58786834F
:103490009783A087B18786879787A08BB18B8ECFC4
:1034A00060E070E0CB01D0CF888D998DD501559625
:1034B0009C938E9354974A8C5B8C6801C40CD51CEA
:1034C0001D8F0C8FDF8ECE8E0C151D0508F013C1DD
:1034D000F801E080F180CE014C960E945320DC017F
:1034E0008D919C918C159D0508F005C18C8D9D8D4D
:1034F000FC012081213459F401960E94172B4EE0E3
:10350000342E380E069744F033243A9405C0CE0189
:103510004C960E946620382EF6E7EF16F2E7FF067B
:1035200009F406C138F531E6E31632E7F30609F48B
:10353000E6C044E6E41642E7F40609F478C050E732
:10354000E5165DE6F50609F037C18C8D9D8D8C156D
:103550009D0508F0D0C0FC0120812134A9F5019619
:103560000E94172B3EE0F32EF80E069794F1FF24ED
:10357000FA942FC084E6E81687E7F80609F4A2C09B
:1035800096E7E91697E7F90609F4E9C0A1E6EA1615
:10359000A7E7FA0609F010C1CE014C960E9453200D
:1035A000DC018D919C918C159D0508F0A4C061E013
:1035B000832D0E941003CE014C960E946620BC0110
:1035C000832D0E944C0397C0CE014C960E9466202A
:1035D000F82ECE014C960E9453200C8D1D8D66E076
:1035E00072E0C8010E94153160E0892B79F069E032
:1035F00072E0C8010E941531892B39F06DE072E04C
:10360000C8010E941531892B49F461E08F2D0E9479
:103610001003CE014C960E94532097CF61E172E0D7
:10362000C8010E941531892BA1F762E0EFCF7A8A99
:10363000698A1C8A1B8A00E110E01E8B0D8B64E1F5
:1036400072E0CE0141960E946A16032D10E0B80187
:10365000CE0141960E945918F801E55DFD4F849115
:10366000F801E95EFD4FF4900D5F1D4FF8010491E4
:1036700060E070E0002389F081110E94B902E02F20
:10368000F0E0EE0FFF1FE750FE4FA591B491EC91D3
:10369000FE2261E070E009F460E0CE0141960E94F4
:1036A00059180B891C890150110929893A89D12C93
:1036B000C12CF12CE12C50E040E064E1C5010E94F6
:1036C000F91C19C0CE014C960E945320DC018D914B
:1036D0009C918C159D0578F461E0832D0E94100368
:1036E000CE014C960E94662061E0892B09F460E0CF
:1036F000832D0E94E202F501158A148A5FCE7A8A30
:10370000698A1C8A1B8AE0E1F0E0FE8BED8B67E1A1
:1037100072E0CE0141960E946A16632D70E0CE01E0
:1037200041960E945918832D0E94A903BC01B5CF70
:103730003982BFE1B315F8F2E32DF0E0EE0FFF1F81
:10374000E15CFD4F2591349121153105A1F2E1E0B5
:103750002C383E0781F2C301F9010995CCCFCE0187
:103760004C960E9453208C8D9D8D9C01201B310B0B
:10377000421A530A9A8389835C824B825E824D820D
:10378000398AFFE1F31508F4B6CFE32DF0E0EE0F30
:10379000FF1FE158FD4F259134912115310509F4A2
:1037A000AACF01E02B38300709F4A5CFB301CE0131
:1037B0004196F90109959FCFD50154964D915C91A1
:1037C000D12CC12CF12CE12C02E010E030E020E003
:1037D00060E074CF8A8D9B8D800F911F1A830983BF
:1037E0009C838B830817190708F0E8CDC3010E945A
:1037F0005320D50155961C921E925497DFCD0E94FE
:1038000016042B013C01F501808191810E94B106D3
:10381000D50157962D913C912130310509F05EC0BC
:10382000F501811109C046865786608A718A108E1B
:10383000178A8081918119CD86819781A085B18574
:1038400093018201081B190B2A0B3B0BD901C801FC
:10385000893116EF9107A105B10548F7893C9F4AC8
:10386000A105B10590F482859385A485B585930162
:103870008201081B190B2A0B3B0BD901C801893C9B
:103880009F4AA105B10508F471CCF501868597859D
:10389000A089B18993018201081B190B2A0B3B0BEC
:1038A000D901C80181379741A105B10508F45ECC63
:1038B000D12CC12CF12CE12C10E000E030E020E014
:1038C00050E040E066E0C5010E94F91CD5011E965B
:1038D0004D925D926D927C92519748CC232B09F0CA
:1038E00045CCF50146855785608971899301820130
:1038F000041B150B260B370BB901A801882381F097
:10390000413757416105710508F430CC80819181C0
:103910000E94C406D50158961C921E925797A7CCB8
:10392000493853416105710508F420CC80819181AB
:103930000E94C406D5010D911C91F8016085718526
:103940008081918142855385DC01ED91FC91611567
:10395000710599F00088F189E02D099521E0019722
:1039600009F020E0F8012487948491101CC0F5012F
:1039700046865786608A718A7BCC0684F785E02D5F
:103980002DEA31E03A832983D8011496CD90DD9059
:10399000ED90FC901797CB82DC82ED82FE82BE0117
:1039A0006F5F7F4FDACF81E090E0D50153969C9313
:1039B0008E93529712962D913C91F901019000201F
:1039C000E9F731978F01021B130BD12CC12CF12C7D
:1039D000E12C41E050E06DE1C5010E94F91CF501C8
:1039E00082859385A485B58586879787A08BB18BC3
:1039F0003FCC2F923F924F925F926F927F928F9225
:103A00009F92AF92BF92CF92DF92EF92FF920F936D
:103A10001F93CF93DF9300D000D000D0CDB7DEB797
:103A20005C016E834A013901DC018D919C910E94F9
:103A3000B106882309F4D3C08E818D7F09F401C1BA
:103A4000BE81B63009F4FDC0BD3109F4FAC0F501FC
:103A50008789908D019709F0C2C081149104B9F44F
:103A6000D50154968D909C9055978114910479F4CA
:103A700052968D919C915397019609F4C9C0539623
:103A80009C938E935297D50152968D909C908E81E7
:103A90008C50893090F5F50182859385A485B58594
:103AA0004681578160857185481759076A077B07EA
:103AB00010F4AC01BD011A012B01F2E42F0E311CF0
:103AC000411C511C0E941604A2019101261B370BB8
:103AD000480B590BDA01C901B7FDA0C0C5010E940E
:103AE0007E180E941604A2019101261B370B480B79
:103AF000590BDA01C901B7FFF1CFC801059661146E
:103B0000710411F485E090E0512C412CE114F10492
:103B100009F02601480E591EBE81B98398248924D4
:103B200098249B828A82C8018C0D9D1D9827892725
:103B300098279D838C83D501ED91FC9180819181A3
:103B4000DC01ED91FC910280F381E02D45E050E035
:103B5000BE016F5F7F4F09954C0160E070E0CB01C3
:103B60000E94E303BE81BB2381F101151105A9F079
:103B7000D501ED91FC9180819181DC01ED91FC9169
:103B80000280F381E02DA801B3010995880E991EEA
:103B900060E070E0CB010E94E303C114D104A9F0FE
:103BA000D501ED91FC9180819181DC01ED91FC9139
:103BB0000280F381E02DA601B7010995880E991EB8
:103BC00060E070E0CB010E94E3038414950479F176
:103BD000F501108E178A808191810E94C406269675
:103BE0000FB6F894DEBF0FBECDBFDF91CF911F910E
:103BF0000F91FF90EF90DF90CF90BF90AF909F908C
:103C00008F907F906F905F904F903F902F9008958E
:103C100081E090E0F501938B828B35CFD5015696EC
:103C20008C9181116ACFC5010E947E1866CF0E94D7
:103C30001604D5011A966D937D938D939C931D97D1
:103C4000CECF8114910409F058CF0ACFCF92DF92E2
:103C5000EF92FF920F931F93CF93DF93CDB7DEB711
:103C6000C658D1090FB6F894DEBF0FBECDBF7C0198
:103C70008B01CE010196CF57DF4F99838883C158BE
:103C8000D040CD57DF4F19821882C358D04080E80A
:103C900090E0CB57DF4F99838883C558D0406CE2C2
:103CA00072E0CE018F579F4F0E946A16B701CE0176
:103CB0008F579F4F0E945918B801CE018F579F4FC1
:103CC0000E946A16CD57DF4F08811981C358D04032
:103CD00001501109CF57DF4F28813981C158D04099
:103CE000D12CC12CF12CE12C50E040E064E186EDB8
:103CF00095E00E94F91CCA57DF4F0FB6F894DEBF5B
:103D00000FBECDBFDF91CF911F910F91FF90EF902C
:103D1000DF90CF900895CF92DF92EF92FF920F93B2
:103D20001F93CF93DF93CDB7DEB7C658D1090FB637
:103D3000F894DEBF0FBECDBF7C018B01CE01019692
:103D4000CF57DF4F99838883C158D040CD57DF4F7D
:103D500019821882C358D04080E890E0CB57DF4FDB
:103D600099838883C558D0406CE272E0CE018F57AA
:103D70009F4F0E946A16B701CE018F579F4F0E9436
:103D80005918B801CE018F579F4F0E945918CD572F
:103D9000DF4F08811981C358D04001501109CF5716
:103DA000DF4F28813981C158D040D12CC12CF12C52
:103DB000E12C50E040E064E186ED95E00E94F91CC2
:103DC000CA57DF4F0FB6F894DEBF0FBECDBFDF91ED
:103DD000CF911F910F91FF90EF90DF90CF900895BA
:103DE0008F929F92AF92BF92CF92DF92EF92FF920B
:103DF0000F931F93CF93DF93CDB7DEB7C75AD10987
:103E00000FB6F894DEBF0FBECDBF0E9462066B01F5
:103E10007C01CE0101964C01CE55DF4F99838883FA
:103E2000C25AD040CC55DF4F19821882C45AD040B4
:103E300020E8A22EB12CCA55DF4FB982A882C65AFB
:103E4000D0406CE272E08F559F4F0E946A1661E08D
:103E500070E0CE018E559F4F0E9459188E010F576A
:103E60001F4F23E045E0C701B6010E943029B80189
:103E7000CE018E559F4F0E946A16CC55DF4F0881A8
:103E80001981C45AD04001501109CE55DF4F288105
:103E90003981C25AD040D12CC12CF12CE12C50E0F8
:103EA00040E064E186ED95E00E94F91C0E948E06D8
:103EB0008C01CE55DF4F99828882C25AD040CC55B2
:103EC000DF4F19821882C45AD040CA55DF4FB982D9
:103ED000A882C65AD0406CE272E0CE018E559F4F48
:103EE0000E946A1663E070E0CE018E559F4F0E94DB
:103EF00059184AE0BE016F577F4FC8010E948D2BB1
:103F0000BE016F577F4FCE018E559F4F0E946A169C
:103F1000CC55DF4F08811981C45AD0400150110996
:103F2000CE55DF4F28813981C25AD04050E040E061
:103F300064E186ED95E00E94F91CC955DF4F0FB68C
:103F4000F894DEBF0FBECDBFDF91CF911F910F91CF
:103F5000FF90EF90DF90CF90BF90AF909F908F90A9
:103F600008951F920F920FB60F9211242F933F9333
:103F70004F935F936F937F938F939F93AF93BF9371
:103F8000EF93FF9389E893E00E942502FF91EF9160
:103F9000BF91AF919F918F917F916F915F914F9161
:103FA0003F912F910F900FBE0F901F9018951F9269
:103FB0000F920FB60F9211242F938F939F93EF932D
:103FC000FF93E0919903F0919A038081E0919F0320
:103FD000F091A00382FD1BC090818091A2038F5FAE
:103FE0008F732091A303821741F0E091A203F0E0C8
:103FF000E757FC4F958F8093A203FF91EF919F911C
:104000008F912F910F900FBE0F901F901895808168
:10401000F4CF1F920F920FB60F9211242F933F935C
:104020008F939F93AF93BF938091F2029091F3028D
:10403000A091F402B091F5023091F10223E0230F38
:104040002D3758F50196A11DB11D2093F1028093E3
:10405000F2029093F302A093F402B093F5028091E0
:10406000F6029091F702A091F802B091F902019640
:10407000A11DB11D8093F6029093F702A093F80260
:10408000B093F902BF91AF919F918F913F912F9182
:104090000F900FBE0F901F90189526E8230F0296E1
:1040A000A11DB11DD2CFDC01ED91FC91119730978C
:1040B00061F012962D913C911397E217F30728F4C3
:1040C00001900020E9F7ED93FC930895FC018081B5
:1040D0009181009739F0228133818217930710F480
:1040E0000C94172B90E080E00895AF92BF92CF928E
:1040F000DF92EF92FF920F931F93CF93DF93CDB791
:10410000DEB7CF5BD1090FB6F894DEBF0FBECDBFCF
:104110005C01CE0186589F4FC654DF4F9983888338
:10412000CA5BD040C454DF4F19821882CC5BD040A8
:1041300080E490E0C254DF4F99838883CE5BD04007
:104140006AE172E0CE0186549F4F0E946A166FE1C9
:1041500072E0CE0186549F4F0E946A1649E750E0F4
:104160006AE671E0CE0101960E945C2BC454DF4FD9
:10417000C880D980CC5BD040C654DF4FE880F9803E
:10418000CA5BD04009E710E09E012F5F3F4F50E02F
:1041900040E061E1C5010E94F91CC154DF4F0FB638
:1041A000F894DEBF0FBECDBFDF91CF911F910F916D
:1041B000FF90EF90DF90CF90BF90AF900895E9E827
:1041C000F3E01382128288EE93E0A0E0B0E08483F3
:1041D0009583A683B78381E691E09183808385EC04
:1041E00090E09587848784EC90E09787868780ECC1
:1041F00090E0918B808B81EC90E0938B828B82ECB2
:1042000090E0958B848B86EC90E0978B868B118E5B
:10421000128E138E148EE6E2F4E08DEA91E0918323
:1042200080831282138214821582ECE2F4E091837F
:1042300080831282138214821582E2E3F4E0918378
:1042400080831282138214821582E8E3F4E0918362
:1042500080831282138214821582EEE3F4E091834C
:1042600080831282138214821582EAE4F4E091833F
:1042700080831282138214821582E4E4F4E0918335
:1042800080831282138214821582E0E5F4E0918328
:1042900080831282138214821582E6E5F4E0918312
:1042A00080831282138214821582E1E1F6E0918309
:1042B00080831282138214821582E2E0F6E0138278
:1042C00012822FE731E03183208324E0248748EEF7
:1042D00053E056874587A5EFB5E013969C938E93E0
:1042E000129714961D921D921D921C921797199663
:1042F0001C921E9218971B961C921E921A971C963F
:104300001C921C971196FC93EE9340E757E160E0F6
:1043100070E04483558366837783E6EDF5E0B183EF
:10432000A08313821282158214821682178210864D
:104330001186128613861486158616861786108AAD
:10434000118A138A128A158A148A168A108E178A7D
:104350008FEF9FEF9093D5058093D405ECE5F4E0C3
:104360001382128283E791E09183808387E08483C4
:104370008FEF858380E1868385E08783208783E0D4
:10438000818782E0828713861486158616861786B3
:1043900081E00C94CF08CF93DF93CDB7DEB7E397DE
:1043A0000FB6F894DEBF0FBECDBF789484B582609F
:1043B00084BD84B5816084BD85B5826085BD85B5C9
:1043C000816085BD80916E00816080936E00109247
:1043D00081008091810082608093810080918100C2
:1043E0008160809381008091800081608093800053
:1043F0008091B10084608093B1008091B0008160B1
:104400008093B00080917A00846080937A008091DC
:104410007A00826080937A0080917A008160809334
:104420007A0080917A00806880937A001092C100AF
:104430008EEF8093EF059DEE9093F0052AEB20938D
:10444000F1058093F2058093F3059093F40520E045
:1044500031E0D9010D900020E9F79D012150314054
:10446000A0E0B1E0E1E0F0E0AD0140505140421782
:10447000530784F4AF014F5F5F4F6D91EA52FA4FDB
:10448000818D8627818F4630510514F041E050E040
:10449000FA01EACF8091600381112AC0109248038B
:1044A0001092470388EE93E0A0E0B0E080934903C8
:1044B00090934A03A0934B03B0934C0387E391E09E
:1044C00090934603809345038DEA91E090935403C3
:1044D0008093530310925503109256031092570382
:1044E0001092580384E080935D0381E08093600321
:1044F00082E093E090930103809300038091FF0298
:104500008111ADC060E372E080E090E00E94E303BF
:10451000DFB6F8940DE012E0E1E2EE2EE2E0FE2ECE
:104520008091FD02811125C0F8018491F7019491D9
:10453000E82FF0E0EE0FFF1FE151FE4FA591B4917F
:104540008C91982321F461E08AE00E94E20261E00C
:104550008AE00E9410038CB580618CBD8CB58064AC
:104560008CBD61E08DE00E94100361E08BE00E9451
:1045700010038091FD028F5F8093FD02DFBEF80182
:104580000491E02FF0E0EE0FFF1FEB51FE4F8591FD
:1045900094919093FC028093FB02F701E490E092E7
:1045A000FA0261E08AE00E9410030E948C0480E518
:1045B00091E00E948D0184E38093880380E80E944B
:1045C00058050E94030B882309F4FDC188E00E946E
:1045D00058050E94F00A883009F0F5C180E10E9478
:1045E00058050E94F00A803109F0EDC180E00E9478
:1045F00058050E94F00A182F8111E5C141E050E0F2
:10460000BE016F5F7F4F8FE190E00E947B0989813F
:10461000833009F0D8C180E48093FE0242E06EE16D
:1046200070E0812F0E94B40542E06FE170E0812FBD
:104630000E94B4051F5F143089F740E06EE170E01E
:10464000812F0E94B40540E06FE170E0812F0E944D
:10465000B4051F5F183089F781E08093FF0280E581
:1046600091E00E948D0146E050E06FEE75E089E038
:1046700090E00E94A8048DEA91E09A8389831B82CE
:104680001C821D821E8244E050E0BE016D5F7F4FA0
:104690008FE090E00E94A8040091000310910103B4
:1046A000D80192961D921D921D921C929597F80129
:1046B00016A217A210A611A69A961D921D921D92DF
:1046C0001C929D9780E69AEEA0E0B0E086AB97AB97
:1046D000A0AFB1AF80EA9FE0A0E0B0E082AF93AFBF
:1046E000A4AFB5AFD801189686E0FD01282F11922E
:1046F0002A95E9F79801225F3F4F94E1F901119261
:104700009A95E9F7EFEEF5E001900D928A95E1F7C1
:104710002C5C3F4F39AB28ABD9011C920E94BF2AB9
:104720002FEC37E040E050E00E940D2FDC01CB0180
:104730000196A11DB11DF80184839583A683B783DB
:1047400080839183A283B3835801F3E4AF0EB11C3D
:10475000C5010E944B0A64E470E0C5010E94B40DDB
:10476000882309F499C10E9416042B013C0143E0FF
:10477000242E58EEC52E53E0D52EE12CF12C912C91
:10478000812CA8A9B9A98C918330B9F181118EC16E
:10479000F80184819581A681B7810196A11DB11D83
:1047A00084839583A683B7830E94160464197509D0
:1047B00086099709A70196010E94762FA90161E059
:1047C000C8010E945C1581E0A8A9B9A98C93F1E009
:1047D0008F169104B1F20E941604641975098609B6
:1047E0009709D801D6962D913D914D915C91D9971D
:1047F000261737074807590710F6C5010E944B0ACC
:10480000F80184819581A681B7810196A11DB11D12
:1048100084839583A683B7830E941604F801FE96CD
:1048200060837183828393838A94892809F034C1D9
:1048300080E591E00E948D01009100031091010339
:10484000B801625F7F4FCE0101960E94591144E08A
:1048500050E0BE016D5F7F4F8FE090E00E94A804A2
:10486000B8016A5E7F4FCE0101960E94591144E063
:1048700050E0BE016D5F7F4F81E090E00E94A80490
:10488000B8016E5E7F4FCE0101960E94591144E03F
:1048900050E0BE016D5F7F4F85E090E00E94A8046C
:1048A000B801625E7F4FCE0101960E9459118B8143
:1048B0009C81AD81BE818093460490934704A09370
:1048C0004804B09349040E94BE037F738091210184
:1048D000909122016827792770932201609321012A
:1048E00068EE73E080E090E00E94E3038DEA91E0DF
:1048F0009A8389831B821C821D821E8280E591E03F
:104900000E948D0144E050E0BE016D5F7F4F8FE05B
:1049100090E00E947B0980E091E09093D90580931C
:10492000D8050E941604DC01CB0188589341A109E7
:10493000B1098093E0059093E105A093E205B0935F
:10494000E3058093DC059093DD05A093DE05B0932D
:10495000DF058093E4059093E505A093E605B09309
:10496000E705E091D605F091D7058FE292E09187B7
:10497000808780E590E0938782878091D60590912B
:10498000D7050E94C4061092EE051092ED050E9414
:1049900016044B015C018091ED059091EE050197A5
:1049A00009F451C10E941604681979098A099B0902
:1049B000603576448105910508F045C186ED95E0A6
:1049C0000E947E18E8CF87E38093880380E80E94E6
:1049D00058050E94030B882329F188E00E9458059E
:1049E0000E94F00A8830F1F480E10E9458050E948C
:1049F000F00A182F8031B1F480E00E9458050E941F
:104A0000F00A81110FC041E050E0BE016F5F7F4F9F
:104A100089E390E00E947B098981843019F4109326
:104A2000FE021ACE83E38093880380E80E94580533
:104A30000E94030B882371F180E10E9458050E94B7
:104A4000F00A803139F582E10E9458050E94F00A8F
:104A5000823101F580E00E9458050E94F00A811120
:104A600019C084E08093FE0215E51FA741E050E0E5
:104A7000BE01615D7F4F8BE190E00E94A8041EA7FC
:104A800041E050E0BE01625D7F4F8AE190E00E940C
:104A9000A804E2CD1092880360E177E280E090E024
:104AA0000E94E303F0E0E0E00995FFCF843001F5D8
:104AB000F80184819581A681B7810196A11DB11D60
:104AC00084839583A683B7830E94160464197509AD
:104AD00086099709A70196010E94762FA90163E034
:104AE000C8010E945C15E2E0A8A9B9A9EC936FCEB9
:104AF000813069F5D801DA964D915D916D917C9187
:104B0000DD979E012F5F3F4FC8010E94BA16382ED5
:104B1000B2E08B1391C089819A81AB81BC81F8018D
:104B200084839583A683B7830E941604641975094C
:104B300086099709A70196010E94762FA90163E0D3
:104B4000C8010E945C15A8A9B9A93C9240CE823048
:104B500009F03DCEF80142AD53AD64AD75AD9E0197
:104B60002F5F3F4FC8010E94BA16382EF5E08F1311
:104B70005CC0A8A9B9A92C92F80182A193A1A4A113
:104B8000B5A1892B8A2B8B2B41F484E893E0A0E01C
:104B9000B0E082A393A3A4A3B5A3F80186A197A133
:104BA000A0A5B1A5892B8A2B8B2B61F482A193A19F
:104BB000A4A1B5A1B695A7959795879586A397A328
:104BC000A0A7B1A7F80182A593A5A4A5B5A5892B97
:104BD0008A2B8B2BA9F482A193A1A4A1B5A1AC012E
:104BE000BD0123E076956795579547952A95D1F7AE
:104BF000841B950BA60BB70B82A793A7A4A7B5A7F9
:104C0000F80186A197A1A0A5B1A586A797A7A0ABFB
:104C1000B1AB82A593A5A4A5B5A582AB93ABA4AB7C
:104C2000B5AB88248394912CD2CDF6E08F1304C0C9
:104C3000A8A9B9A91C92CBCDBFEF3B12C8CDE8A95A
:104C4000F9A91082C4CD8091ED059091EE050197F0
:104C500009F093CE82E00E94CF0881E00E943208E2
:104C60000BE31FE1C8010197F1F782E00E943208CF
:104C7000C8010197F1F760E080E00E9438088BE3FB
:104C800092E00E94450761E080E00E9438088EE3D0
:104C900092E00E94450761E088E00E94100361E015
:104CA00089E00E94100360E088E00E94E20260E078
:104CB00089E00E94E20261E086E00E941003E09138
:104CC0009903F0919A0382E08083E0919503F0913B
:104CD00096031082E0919703F091980387E6808312
:104CE0001092A103E0919D03F0919E0386E08083E2
:104CF000E0919B03F0919C03808180618083E0912F
:104D00009B03F0919C03808188608083E0919B03EA
:104D1000F0919C03808180688083E0919B03F091F7
:104D20009C0380818F7D80838FEF90E00E949402AE
:104D30008FEF90E00E9494028FEF90E00E94940227
:104D40008091D4059091D50597FF22C00E9416044A
:104D5000E4E7F4E050E040E026E1249FD001259F05
:104D6000B00D11248D010C581B4FD801322F1D920C
:104D70003A95E9F760837183828393834F5F5F4F36
:104D800076964031510549F71092D5051092D40519
:104D90008091D4059091D5054097CCF5E4E7F4E0F7
:104DA00090E080E024813581232B09F00EC226811A
:104DB0003781232B09F009C226E1289F8001299F12
:104DC000100D11240C581B4F88EE93E0A0E0B0E0CA
:104DD000F80183879487A587B68780EF9EE1958346
:104DE00084831286108A178681E0838B0E941604C2
:104DF000D8016D937D938D939C9313978091D405E7
:104E00009091D50501969093D5058093D4052224E1
:104E10002394312CCC24CA94D12C86ED95E00E94A9
:104E20007E180E94160468AB79AB8AAB9BAB34E763
:104E3000E32E34E0F32E8701F801158A148A848169
:104E40009581892B21F486819781892BA9F1D8013D
:104E50004D905D906D907C90139768A979A98AA96F
:104E60009BA964197509860997091B968D909D90D9
:104E7000AD90BC901E97681579058A059B05E0F0FA
:104E8000A50194010E94762FC501B4010E941E3035
:104E9000460E571E681E791EF801408251826282BA
:104EA00073828389882341F0278530892115310554
:104EB00009F092C1358A248A0A5E1F4FF5E0043D4D
:104EC0001F0709F0B9CF10E000E0D70154968D918B
:104ED0009C915597892BE9F11A968C911A97882302
:104EE00009F491C11696ED91FC91179718968D9142
:104EF0009C910995F70184899589029751F58091D4
:104F0000D4059091D505892B21F184819581892B38
:104F100021F486819781892BE1F026E1209FF00121
:104F2000219FF00D1124EC58FB4FDF011D922A95B3
:104F3000E9F70E941604F7016083718382839383EB
:104F40008091D4059091D50501979093D5058093D4
:104F5000D4050F5F1F4FF6E1EF0EF11C0031110574
:104F600009F0B3CF19A618A61BA61AA61DA61CA643
:104F700070E060E0CE0188960E94921628A539A5BF
:104F8000811146C12115310519F0C9010E94EA2994
:104F900019A618A61DA61CA61BA61AA60E94620684
:104FA0001BA21AA21DA21CA21FA21EA28E010F5F8D
:104FB0001F4F21E043E00E9430297C01009709F453
:104FC00036C1FC0101900020E9F731978F01081BE1
:104FD000190BB801CE0182960E9492162AA13BA11C
:104FE00081111EC12115310519F0C9010E94EA295C
:104FF0001BA21AA21FA21EA21DA21CA288A599A5CF
:10500000009709F41CC16AA17BA16115710509F41F
:1050100014C14AA55BA52EA13FA14217530708F46E
:105020000CC10E941E318EA19FA19DA78CA71FA21B
:105030001EA28AA19BA1009711F00E94EA2960E0BC
:1050400082E00E9438084CA55DA568A579A58CE58D
:1050500094E00E94A7010E948E068C0190936B033E
:1050600080936A0361E082E00E943808A80170E042
:1050700060E02AE08CE594E00E94EC068FE00E945C
:10508000A9039695879596958795B601681B790B28
:1050900086E00E944C0364E670E080E090E00E94AD
:1050A000E3030E94620620E030E04CE052E40E94FC
:1050B0001930181624F580916803882301F11092A5
:1050C000680360E089E00E94E20260E087E00E94FD
:1050D000380881E492E00E9445076AE472E086E0C5
:1050E00090E00E94261E6FE672E086E090E00E944B
:1050F000261E70E060E082E090E00E948B1E8091AE
:105100006A0390916B03803D974018F58091690385
:1051100081111FC00E94860681E08093690361E0CF
:1051200087E00E94380883EC91E00E94450769E817
:1051300072E087E090E00E94261E69EA72E087E054
:1051400090E00E94261E61E070E084E090E00E9402
:105150008B1E80916A0390916B03883B9B4011F5F5
:10516000809169038823F1F00E947E061092690302
:1051700061E087E00E9438088DEC91E00E944507CD
:1051800061EC72E087E090E00E94261E66ED72E01E
:1051900087E090E00E94261E70E060E084E090E0EE
:1051A0000E948B1E88A599A5009711F00E94EA29FC
:1051B00080E090E0892B09F430CE0E941102882310
:1051C00009F42BCE0E94000028CE019676968031FD
:1051D000910509F0E7CD1BCED8018189928982170C
:1051E000930708F069CE358A248A0196928B818BC9
:1051F0008217930708F460CEE2E0F0E05596FC9346
:10520000EE93549759CE1496ED91FC91099572CE78
:105210001DA61CA660EC72E0C9010E941E31BECE24
:105220001FA30EA3B701C9010E941E31E7CE8AA1B8
:105230009BA1009709F0DACEDBCE0E94EA298AA171
:105240009BA199A788A78CA19DA19BA78AA78EA1A6
:105250009FA19DA78CA71BA21AA21DA21CA2E7CEEC
:10526000EF920F931F93CF93DF93E80134E047FD54
:1052700034E1042E000C550B57FF03C051954195A6
:105280005109E32E022F242FAE010E94A72BCE013D
:10529000DF91CF911F910F91EF9008950F931F937E
:1052A000CF93DF938230910510F482E090E0E0919B
:1052B0001906F0911A0630E020E0B0E0A0E0309747
:1052C00099F42115310509F44AC0281B390B243003
:1052D0003105D8F58A819B816115710589F1FB0142
:1052E00093838283FE0111C0408151810281138129
:1052F00048175907E0F04817590799F4109761F0DB
:1053000012960C93129713961C933296CF01DF914D
:10531000CF911F910F9108950093190610931A06CB
:10532000F4CF2115310551F04217530738F0A90188
:10533000DB019A01BD01DF01F801C1CFEF01F9CF17
:1053400090931A0680931906CDCFFE01E20FF31F4A
:10535000819391932250310939832883D7CF2091AB
:10536000170630911806232B41F420912501309126
:1053700026013093180620931706209123013091BF
:1053800024012115310541F42DB73EB74091270185
:1053900050912801241B350BE0911706F091180657
:1053A000E217F307A0F42E1B3F0B2817390778F0FC
:1053B000AC014E5F5F4F2417350748F04E0F5F1F5B
:1053C0005093180640931706819391939FCFF0E076
:1053D000E0E09CCFCF93DF930097E9F0FC01329798
:1053E00013821282A0911906B0911A06ED0130E0E5
:1053F00020E01097A1F420813181820F931F20912A
:105400001706309118062817390709F061C0F09384
:105410001806E0931706DF91CF910895EA01CE17A1
:10542000DF07E8F54A815B819E0141155105B1F71F
:10543000E901FB83EA8349915991C40FD51FEC1709
:10544000FD0761F4808191810296840F951FE90127
:1054500099838883828193819B838A83F0E0E0E053
:1054600012968D919C9113970097B9F52D913C91CF
:105470001197CD010296820F931F2091170630914C
:1054800018062817390739F6309751F510921A0681
:1054900010921906B0931806A0931706BCCFD383B9
:1054A000C28340815181840F951FC817D90761F4C9
:1054B0004E5F5F4F88819981480F591F5183408308
:1054C0008A819B81938382832115310509F0B0CFB6
:1054D000F0931A06E09319069ECFFD01DC01C0CFC0
:1054E00013821282D7CF8F929F92AF92BF92CF92A8
:1054F000DF92EF92FF92CF93DF93EC016881798185
:105500008A819B81611571058105910521F464E211
:1055100079ED8BE597E02DE133EF41E050E00E941B
:105520000D2F49015A019B01AC01A7EAB1E40E9489
:105530002C2F6B017C01ACEEB4EFA50194010E940D
:105540003A2FC60ED71EE81EF91EF7FE06C081E0F0
:10555000C81AD108E10880E8F80AC882D982EA822C
:10556000FB82C701B6019F77DF91CF91FF90EF904B
:10557000DF90CF90BF90AF909F908F9008958F92C3
:105580009F92AF92BF92CF92DF92EF92FF92609183
:10559000290170912A0180912B0190912C016115B4
:1055A00071058105910521F464E279ED8BE597E0C1
:1055B0002DE133EF41E050E00E940D2F49015A01E7
:1055C0009B01AC01A7EAB1E40E942C2F6B017C0186
:1055D000ACEEB4EFA50194010E943A2FC60ED71E7F
:1055E000E81EF91EF7FE06C081E0C81AD108E108DE
:1055F00080E8F80AC0922901D0922A01E0922B019A
:10560000F0922C01C701B6019F77FF90EF90DF90D9
:10561000CF90BF90AF909F908F9008956093290195
:1056200070932A0180932B0190932C010895FC0123
:1056300088279927E89421912032E9F3293010F046
:105640002E30C8F32B3241F02D3239F4689404C067
:105650000E94852B820F911D219120532A30C0F387
:105660001EF4909581959F4F08951F93FC019927F3
:105670008827BC01E89411911032E9F3193010F039
:105680001E30C8F31B3251F01D3249F4689406C035
:105690000E94702B610F711D811D911D119110537E
:1056A0001A30B0F33EF490958095709561957F4FD8
:1056B0008F4F9F4F1F910895FB01DC0102C00590A1
:1056C0000D9241505040D8F70895BB274A3031F42D
:1056D000992322F4BDE2909581959F4F0C948E2BD7
:1056E000592F482F372F262F660F771F881F991F96
:1056F000660F771F881F991F620F731F841F951FE6
:10570000660F771F881F991F08957AE0979F902D45
:10571000879F802D910D11240895BB27FB015527EC
:10572000AA27880F991FAA1FA41710F0A41B8395FE
:105730005051B9F7A05DAA3308F0A95DA193009775
:1057400079F7B111B1931192CB010C94DE2DA9E040
:10575000B0E0EDEAFBE20C94452F6A01F22EB02E88
:10576000102FFBE3AF2EA01608F41BE31F5F012FE1
:1057700027E0AE014F5F5F4F0E94062DBC0189817B
:10578000982F9970913009F43FC09BE2E1FC04C06E
:105790009E2D9170E0FC3AC05E2D5071E82FE870AC
:1057A00083FF46C084E0911101C083E0EF2DE81B28
:1057B0008F1508F0E0E0D6018E2F20E2552351F13D
:1057C000992329F0D6019C93C60101966C0196019C
:1057D0002D5F3F4FE2FE24C08EE4D6018C9391E40E
:1057E00011969C93119712968C93D9018E2F90E26B
:1057F00081111BC0E20FF32FF11D10828EEF9FEF7E
:105800002996ECE00C94612F9DE2C6CF90E2C4CFC4
:105810002D9381508111FCCFCE0ED11CE0E0D0CF72
:105820008EE6D6018C9391E6DBCF9D938150E0CF3D
:10583000482F447082FF3DC084E0911101C083E095
:105840008F1510F4EF2DE81BD6018E2F20E2552383
:1058500009F1992329F0D6019C93C60101966C01A8
:1058600096012D5F3F4FE2FE1BC089E4D6018C9369
:105870008EE411968C93119786E412968C93D9013D
:105880008E2F90E2882309F4B5CF9D938150FACFF3
:105890002D9381508111FCCFCE0ED11CE0E0D9CFE9
:1058A00089E6D6018C938EE611968C93119786E645
:1058B000E4CF9B0177FF02C030E020E0A1E0B0E040
:1058C000911102C0B0E0A0E0F9013196AE0FBF1F08
:1058D0008B2C912CBB2009F461C05401EFEFAE1A60
:1058E000BE0AAA0DBB1DFA161B0619F014F04F2DA7
:1058F0004A1B511188C0E3FC59C07601A42FB0E2C5
:10590000A1114FC0C40ED11C992309F45BC040E023
:10591000D6011196F60190836D01552309F448C014
:10592000012F060F9A81582F507184FF03C09133C5
:1059300009F4015010160CF047C0093008F008E0D7
:10594000EEE2FE2E5B01A01AB108850191948194CC
:1059500091082F3F320729F4D601FC92F6013196C7
:105960006F016217730794F1021713077CF5DB01CF
:10597000A21BB30BAA24A394B12CAC0EBD1EAA0D7E
:10598000BB1D11968C9121503109D6011196281515
:105990003905F4F0F60180836D01DBCFB12CA12C29
:1059A000A0CFF701B1937F01A150AACF9111B0CF41
:1059B000D601942F50E302C05D9391509111FCCF1A
:1059C000C40ED11C40E0ACCF01E0BACF80E3DBCF06
:1059D0006217730731F4963388F4953311F4552325
:1059E00069F0F6018083FD01842F90E2811108C0E7
:1059F000A40FB11D1C9290E080E002CF81E3F1CFB3
:105A000091938150F3CF911183CF8ACF283008F042
:105A100027E03327DA01990F311D87FD9160009649
:105A20006105710539F432602E5F3D9330E32A95AC
:105A3000E1F708959F3F30F080387105610509F066
:105A40003C5F3C5F3D93913008F08068911DDF938F
:105A5000CF931F930F93FF92EF92192F987F9695F4
:105A6000E92F96959695E90FFF27EE53FF4F99275B
:105A70003327EE24FF24A701E7010590089407943B
:105A800028F4360FE71EF81E491F511D660F771FB9
:105A9000881F991F0694A1F70590079428F4E70E34
:105AA000F81E491F561FC11D770F881F991F661FBB
:105AB0000694A1F70590079428F4F80E491F561F85
:105AC000C71FD11D880F991F661F771F0694A1F766
:105AD0000590079420F4490F561FC71FD81F990F30
